{
  "contractName": "KingCoin",
  "abi": [
    {
      "inputs": [],
      "stateMutability": "nonpayable",
      "type": "constructor"
    },
    {
      "anonymous": false,
      "inputs": [
        {
          "indexed": true,
          "internalType": "address",
          "name": "owner",
          "type": "address"
        },
        {
          "indexed": true,
          "internalType": "address",
          "name": "spender",
          "type": "address"
        },
        {
          "indexed": false,
          "internalType": "uint256",
          "name": "value",
          "type": "uint256"
        }
      ],
      "name": "Approval",
      "type": "event"
    },
    {
      "anonymous": false,
      "inputs": [
        {
          "indexed": true,
          "internalType": "address",
          "name": "from",
          "type": "address"
        },
        {
          "indexed": true,
          "internalType": "address",
          "name": "to",
          "type": "address"
        },
        {
          "indexed": false,
          "internalType": "uint256",
          "name": "value",
          "type": "uint256"
        }
      ],
      "name": "Transfer",
      "type": "event"
    },
    {
      "inputs": [
        {
          "internalType": "address",
          "name": "",
          "type": "address"
        },
        {
          "internalType": "address",
          "name": "",
          "type": "address"
        }
      ],
      "name": "allowance",
      "outputs": [
        {
          "internalType": "uint256",
          "name": "",
          "type": "uint256"
        }
      ],
      "stateMutability": "view",
      "type": "function",
      "constant": true
    },
    {
      "inputs": [
        {
          "internalType": "address",
          "name": "",
          "type": "address"
        }
      ],
      "name": "balances",
      "outputs": [
        {
          "internalType": "uint256",
          "name": "",
          "type": "uint256"
        }
      ],
      "stateMutability": "view",
      "type": "function",
      "constant": true
    },
    {
      "inputs": [],
      "name": "decimals",
      "outputs": [
        {
          "internalType": "uint256",
          "name": "",
          "type": "uint256"
        }
      ],
      "stateMutability": "view",
      "type": "function",
      "constant": true
    },
    {
      "inputs": [],
      "name": "name",
      "outputs": [
        {
          "internalType": "string",
          "name": "",
          "type": "string"
        }
      ],
      "stateMutability": "view",
      "type": "function",
      "constant": true
    },
    {
      "inputs": [],
      "name": "symbol",
      "outputs": [
        {
          "internalType": "string",
          "name": "",
          "type": "string"
        }
      ],
      "stateMutability": "view",
      "type": "function",
      "constant": true
    },
    {
      "inputs": [],
      "name": "totalSupply",
      "outputs": [
        {
          "internalType": "uint256",
          "name": "",
          "type": "uint256"
        }
      ],
      "stateMutability": "view",
      "type": "function",
      "constant": true
    },
    {
      "inputs": [
        {
          "internalType": "address",
          "name": "owner",
          "type": "address"
        }
      ],
      "name": "balanceOf",
      "outputs": [
        {
          "internalType": "uint256",
          "name": "",
          "type": "uint256"
        }
      ],
      "stateMutability": "view",
      "type": "function",
      "constant": true
    },
    {
      "inputs": [
        {
          "internalType": "address",
          "name": "to",
          "type": "address"
        },
        {
          "internalType": "uint256",
          "name": "value",
          "type": "uint256"
        }
      ],
      "name": "transfer",
      "outputs": [
        {
          "internalType": "bool",
          "name": "",
          "type": "bool"
        }
      ],
      "stateMutability": "nonpayable",
      "type": "function"
    },
    {
      "inputs": [
        {
          "internalType": "address",
          "name": "from",
          "type": "address"
        },
        {
          "internalType": "address",
          "name": "to",
          "type": "address"
        },
        {
          "internalType": "uint256",
          "name": "value",
          "type": "uint256"
        }
      ],
      "name": "transferFrom",
      "outputs": [
        {
          "internalType": "bool",
          "name": "",
          "type": "bool"
        }
      ],
      "stateMutability": "nonpayable",
      "type": "function"
    },
    {
      "inputs": [
        {
          "internalType": "address",
          "name": "spender",
          "type": "address"
        },
        {
          "internalType": "uint256",
          "name": "value",
          "type": "uint256"
        }
      ],
      "name": "aprroval",
      "outputs": [
        {
          "internalType": "bool",
          "name": "",
          "type": "bool"
        }
      ],
      "stateMutability": "nonpayable",
      "type": "function"
    }
  ],
  "bytecode": "0x608060405269152d02c7e14af68000006002556040518060400160405280600881526020017f4b696e67436f696e000000000000000000000000000000000000000000000000815250600390805190602001906200005f9291906200010c565b506040518060400160405280600381526020017f4b474e000000000000000000000000000000000000000000000000000000000081525060049080519060200190620000ad9291906200010c565b506012600555348015620000c057600080fd5b506002546000803373ffffffffffffffffffffffffffffffffffffffff1673ffffffffffffffffffffffffffffffffffffffff1681526020019081526020016000208190555062000220565b8280546200011a90620001eb565b90600052602060002090601f0160209004810192826200013e57600085556200018a565b82601f106200015957805160ff19168380011785556200018a565b828001600101855582156200018a579182015b82811115620001895782518255916020019190600101906200016c565b5b5090506200019991906200019d565b5090565b5b80821115620001b85760008160009055506001016200019e565b5090565b7f4e487b7100000000000000000000000000000000000000000000000000000000600052602260045260246000fd5b600060028204905060018216806200020457607f821691505b6020821081036200021a5762000219620001bc565b5b50919050565b610d8280620002306000396000f3fe608060405234801561001057600080fd5b506004361061009e5760003560e01c806370a082311161006657806370a082311461015d57806395d89b411461018d578063a0e2bc09146101ab578063a9059cbb146101db578063dd62ed3e1461020b5761009e565b806306fdde03146100a357806318160ddd146100c157806323b872dd146100df57806327e235e31461010f578063313ce5671461013f575b600080fd5b6100ab61023b565b6040516100b8919061091a565b60405180910390f35b6100c96102c9565b6040516100d69190610955565b60405180910390f35b6100f960048036038101906100f491906109ff565b6102cf565b6040516101069190610a6d565b60405180910390f35b61012960048036038101906101249190610a88565b6104fe565b6040516101369190610955565b60405180910390f35b610147610516565b6040516101549190610955565b60405180910390f35b61017760048036038101906101729190610a88565b61051c565b6040516101849190610955565b60405180910390f35b610195610564565b6040516101a2919061091a565b60405180910390f35b6101c560048036038101906101c09190610ab5565b6105f2565b6040516101d29190610a6d565b60405180910390f35b6101f560048036038101906101f09190610ab5565b6106ed565b6040516102029190610a6d565b60405180910390f35b61022560048036038101906102209190610af5565b61085c565b6040516102329190610955565b60405180910390f35b6003805461024890610b64565b80601f016020809104026020016040519081016040528092919081815260200182805461027490610b64565b80156102c15780601f10610296576101008083540402835291602001916102c1565b820191906000526020600020905b8154815290600101906020018083116102a457829003601f168201915b505050505081565b60025481565b60008060009050826102e08661051c565b1015610321576040517f08c379a000000000000000000000000000000000000000000000000000000000815260040161031890610be1565b60405180910390fd5b82600160008773ffffffffffffffffffffffffffffffffffffffff1673ffffffffffffffffffffffffffffffffffffffff16815260200190815260200160002060003373ffffffffffffffffffffffffffffffffffffffff1673ffffffffffffffffffffffffffffffffffffffff1681526020019081526020016000205410156103e0576040517f08c379a00000000000000000000000000000000000000000000000000000000081526004016103d790610be1565b60405180910390fd5b826000808773ffffffffffffffffffffffffffffffffffffffff1673ffffffffffffffffffffffffffffffffffffffff168152602001908152602001600020600082825461042e9190610c30565b92505081905550826000808673ffffffffffffffffffffffffffffffffffffffff1673ffffffffffffffffffffffffffffffffffffffff16815260200190815260200160002060008282546104839190610c64565b92505081905550600190508373ffffffffffffffffffffffffffffffffffffffff168573ffffffffffffffffffffffffffffffffffffffff167fddf252ad1be2c89b69c2b068fc378daa952ba7f163c4a11628f55a4df523b3ef856040516104eb9190610955565b60405180910390a3809150509392505050565b60006020528060005260406000206000915090505481565b60055481565b60008060008373ffffffffffffffffffffffffffffffffffffffff1673ffffffffffffffffffffffffffffffffffffffff168152602001908152602001600020549050919050565b6004805461057190610b64565b80601f016020809104026020016040519081016040528092919081815260200182805461059d90610b64565b80156105ea5780601f106105bf576101008083540402835291602001916105ea565b820191906000526020600020905b8154815290600101906020018083116105cd57829003601f168201915b505050505081565b6000806000905082600160003373ffffffffffffffffffffffffffffffffffffffff1673ffffffffffffffffffffffffffffffffffffffff16815260200190815260200160002060008673ffffffffffffffffffffffffffffffffffffffff1673ffffffffffffffffffffffffffffffffffffffff16815260200190815260200160002081905550600190508373ffffffffffffffffffffffffffffffffffffffff163373ffffffffffffffffffffffffffffffffffffffff167f8c5be1e5ebec7d5bd14f71427d1e84f3dd0314c0f7b2291e5b200ac8c7c3b925856040516106db9190610955565b60405180910390a38091505092915050565b60008060009050826106fe3361051c565b101561073f576040517f08c379a000000000000000000000000000000000000000000000000000000000815260040161073690610d2c565b60405180910390fd5b826000803373ffffffffffffffffffffffffffffffffffffffff1673ffffffffffffffffffffffffffffffffffffffff168152602001908152602001600020600082825461078d9190610c30565b92505081905550826000808673ffffffffffffffffffffffffffffffffffffffff1673ffffffffffffffffffffffffffffffffffffffff16815260200190815260200160002060008282546107e29190610c64565b92505081905550600190508373ffffffffffffffffffffffffffffffffffffffff163373ffffffffffffffffffffffffffffffffffffffff167fddf252ad1be2c89b69c2b068fc378daa952ba7f163c4a11628f55a4df523b3ef8560405161084a9190610955565b60405180910390a38091505092915050565b6001602052816000526040600020602052806000526040600020600091509150505481565b600081519050919050565b600082825260208201905092915050565b60005b838110156108bb5780820151818401526020810190506108a0565b838111156108ca576000848401525b50505050565b6000601f19601f8301169050919050565b60006108ec82610881565b6108f6818561088c565b935061090681856020860161089d565b61090f816108d0565b840191505092915050565b6000602082019050818103600083015261093481846108e1565b905092915050565b6000819050919050565b61094f8161093c565b82525050565b600060208201905061096a6000830184610946565b92915050565b600080fd5b600073ffffffffffffffffffffffffffffffffffffffff82169050919050565b60006109a082610975565b9050919050565b6109b081610995565b81146109bb57600080fd5b50565b6000813590506109cd816109a7565b92915050565b6109dc8161093c565b81146109e757600080fd5b50565b6000813590506109f9816109d3565b92915050565b600080600060608486031215610a1857610a17610970565b5b6000610a26868287016109be565b9350506020610a37868287016109be565b9250506040610a48868287016109ea565b9150509250925092565b60008115159050919050565b610a6781610a52565b82525050565b6000602082019050610a826000830184610a5e565b92915050565b600060208284031215610a9e57610a9d610970565b5b6000610aac848285016109be565b91505092915050565b60008060408385031215610acc57610acb610970565b5b6000610ada858286016109be565b9250506020610aeb858286016109ea565b9150509250929050565b60008060408385031215610b0c57610b0b610970565b5b6000610b1a858286016109be565b9250506020610b2b858286016109be565b9150509250929050565b7f4e487b7100000000000000000000000000000000000000000000000000000000600052602260045260246000fd5b60006002820490506001821680610b7c57607f821691505b602082108103610b8f57610b8e610b35565b5b50919050565b7f546169206b686f616e2063687579656e206b686f6e6720647520736f20647500600082015250565b6000610bcb601f8361088c565b9150610bd682610b95565b602082019050919050565b60006020820190508181036000830152610bfa81610bbe565b9050919050565b7f4e487b7100000000000000000000000000000000000000000000000000000000600052601160045260246000fd5b6000610c3b8261093c565b9150610c468361093c565b925082821015610c5957610c58610c01565b5b828203905092915050565b6000610c6f8261093c565b9150610c7a8361093c565b9250827fffffffffffffffffffffffffffffffffffffffffffffffffffffffffffffffff03821115610caf57610cae610c01565b5b828201905092915050565b7f546169206b686f616e206b686f6e6720647520736f206475206465206368757960008201527f656e000000000000000000000000000000000000000000000000000000000000602082015250565b6000610d1660228361088c565b9150610d2182610cba565b604082019050919050565b60006020820190508181036000830152610d4581610d09565b905091905056fea2646970667358221220fe6489e9f80218088969759697027cd1a6482e14a07df5d8973224b6255afd1a64736f6c634300080d0033",
  "immutableReferences": {},
  "source": "// SPDX-License-Identifier: MIT\npragma solidity >=0.4.22 <0.9.0;\n\ncontract KingCoin {\n\n    mapping(address => uint) public balances;\n    mapping(address => mapping(address => uint)) public allowance;\n\n    uint public totalSupply =  100000*10**18;// 100k coin \n    string public name = 'KingCoin';\n    string public symbol = 'KGN';\n    uint public decimals =  18;\n\n    event Transfer(address indexed from, address indexed to, uint value);\n    event Approval(address indexed owner, address indexed spender, uint value);\n\n    constructor () {\n        balances[msg.sender] =  totalSupply;\n    }\n\n    function balanceOf(address owner) public view returns (uint) {\n        return balances[owner];\n    }\n\n    function transfer(address to, uint value) public returns (bool) {\n\n        bool isSuccess = false;\n        require(balanceOf(msg.sender) >= value, 'Tai khoan khong du so du de chuyen');\n        balances[msg.sender] -= value;\n        balances[to] += value;        \n        isSuccess = true;\n        emit Transfer(msg.sender, to, value);\n        \n        return isSuccess;\n    }\n\n    function transferFrom(address from, address to, uint value) public returns(bool) {\n        bool isSuccess = false;\n        require(balanceOf(from) >= value, 'Tai khoan chuyen khong du so du');\n        require(allowance[from][msg.sender] >= value, 'Tai khoan chuyen khong du so du');\n        balances[from] -= value;\n        balances[to] += value;\n        isSuccess = true;\n        emit Transfer(from, to, value);\n\n        return isSuccess;\n    }\n\n    function aprroval(address spender, uint value) public returns(bool) {\n        bool isSuccess = false;\n        allowance[msg.sender][spender] = value;\n        isSuccess = true;\n        emit Approval(msg.sender, spender, value);\n\n        return isSuccess;\n    }\n\n\n}\n",
  "sourcePath": "C:\\Users\\phamn\\OneDrive\\Coding\\SmartContract\\contracts\\KingCoin.sol",
  "compiler": {
    "name": "solc",
    "version": "0.8.13+commit.abaa5c0e.Emscripten.clang"
  },
  "schemaVersion": "3.4.7",
  "updatedAt": "2022-04-17T14:05:40.965Z",
  "networkType": "ethereum",
  "devdoc": {
    "kind": "dev",
    "methods": {},
    "version": 1
  },
  "userdoc": {
    "kind": "user",
    "methods": {},
    "version": 1
  }
}